:020000040800F2
:1000000078070020CD0100088505000815050008C7
:100010008105000887020008E70A000800000000C8
:100020000000000000000000000000007107000850
:100030008B02000800000000590600085D08000857
:10004000E7010008E7010008E7010008E7010008F0
:10005000E7010008E7010008E70100088D02000839
:10006000E7010008E7010008E7010008E7010008D0
:10007000E7010008E7010008E7010008E7010008C0
:10008000E7010008E7010008E7010008E7010008B0
:10009000E7010008E7010008E7010008E7010008A0
:1000A000E7010008E7010008E7010008E701000890
:1000B000E7010008E7010008E7010008E701000880
:1000C000E7010008E7010008E7010008E701000870
:1000D000E7010008E7010008C1080008E70100087F
:1000E000E7010008E7010008E7010008E701000850
:1000F000E7010008E7010008E7010008E701000840
:10010000E7010008E7010008E7010008E70100082F
:10011000E7010008E7010008E7010008E70100081F
:10012000E7010008E7010008E7010008E70100080F
:1001300000F002F800F03AF80AA090E8000C8244BF
:100140008344AAF10107DA4501D100F02FF8AFF29C
:10015000090EBAE80F0013F0010F18BFFB1A43F0A5
:1001600001031847F00B0000100C0000103A24BFE8
:1001700078C878C1FAD8520724BF30C830C144BF0C
:1001800004680C607047000000230024002500264E
:10019000103A28BF78C1FBD8520728BF30C148BFEA
:1001A0000B6070471FB51FBD10B510BD00F031F8D2
:1001B0001146FFF7F7FF00F015FD00F04FF803B40C
:1001C000FFF7F2FF03BC00F057F800000948804732
:1001D00009480047FEE7FEE7FEE7FEE7FEE7FEE729
:1001E000FEE7FEE7FEE7FEE704480549054A064B41
:1001F0007047000061080008310100087801002004
:1002000078070020780300207803002070477047AB
:100210007047754600F02CF8AE4605006946534617
:1002200020F00700854618B020B5FFF7DDFFBDE8D8
:1002300020404FF000064FF000074FF000084FF04D
:10024000000B21F00701AC46ACE8C009ACE8C009DE
:10025000ACE8C009ACE8C0098D46704710B504464B
:10026000AFF300802046BDE81040FFF7A8BF0000B4
:10027000004870471801002001491820ABBEFEE776
:1002800026000200704700BFFEE7704710B502204D
:1002900000F018F840B10648006880F48070044906
:1002A0000860044800F038F9022000F005F810BD9D
:1002B0000C080140004400400149086070470000FC
:1002C00014040140014600200022074B1B6803EA8A
:1002D0000102054B14331B680B4013B10AB1012016
:1002E00000E0002070470000000401400021234985
:1002F0008279002A3AD00A46126803689A430B466C
:100300001A600A1D126803689A430B1D1A6002796D
:1003100011440A6803681A430A60184A08321268CE
:1003200003689A43154B08331A601A1D1268036854
:100330009A43124B0C331A604279102A0ED11A1FBD
:10034000126803681A430D4B08331A601A1D1268AD
:1003500003681A43094B0C331A600DE007494279D0
:1003600011440A6803681A430A6005E002791144DF
:100370000A6803689A430A6070470000000401405D
:1003800008B54FF4C06000F05DF907208DF800005B
:1003900001208DF801008DF802008DF803006846F9
:1003A00000F018F908BD000030B500228B071C0FC3
:1003B0000F2303FA04F20B4B8C1053F824309343B1
:1003C000084C8D1044F8253023468C1053F8243007
:1003D0008C07240F00FA04F42343024C8D1044F8D8
:1003E000253030BD080001402DE9F04102460025CE
:1003F0000026002000230024002791F803C00CF001
:100400000F0591F803C00CF0100CBCF1000F03D0E5
:1004100091F802C04CEA050591F800C0BCF1000F4C
:1004200031D0146800202BE04FF0010C0CFA00F3DF
:10043000B1F800C00CEA03069E4220D183004FF0C1
:100440000F0C0CFA03F7BC4305FA03FC4CEA040456
:1004500091F803C0BCF1280F06D14FF0010C0CFA43
:1004600000FCC2F814C00AE091F803C0BCF1480FC8
:1004700005D14FF0010C0CFA00FCC2F810C0401C72
:100480000828D1D31460B1F800C0BCF1FF0F34DDEF
:10049000546800202EE000F1080C4FF0010808FA23
:1004A0000CF3B1F800C00CEA03069E4221D1830090
:1004B0004FF00F0C0CFA03F7BC4305FA03FC4CEAAF
:1004C000040491F803C0BCF1280F05D100F1080C19
:1004D00008FA0CF8C2F8148091F803C0BCF1480F78
:1004E00007D100F1080C4FF0010808FA0CF8C2F827
:1004F0001080401C0828CED35460BDE8F08102462D
:10050000002093680B400BB1012000E000207047F1
:100510000161704700BFFEE770B5054602210C4837
:10052000FFF7EDFF012811D1002406E00948015D25
:10053000284600F0DAFA601CC4B2102CF6DD00BFC9
:100540004021284600F0FEF90028F9D070BD0000D7
:10055000000C0140CA00002070B504460D46294633
:100560002046FFF7CCFF012808D100BF29462046CE
:10057000FFF7C5FF0128F9D0012070BD0020FCE77E
:1005800000BFFEE7704708B54FF4A06000F05AF8CE
:1005900025208DF8000001208DF801008DF8020063
:1005A0008DF80300684600F015F808BD08B54FF453
:1005B000A06000F047F826208DF8000001208DF89B
:1005C00001008DF802008DF80300684600F002F883
:1005D00008BD000070B5002100230F22C47804B3C9
:1005E000154C246804F4E064C4F5E064210AC1F108
:1005F0000403CA40447804FA03F184781440214388
:1006000009010E4C0678A155047804F01F05012459
:10061000AC4005786D11AD0005F1E025C5F800414D
:1006200009E0047804F01F050124AC40044D06786D
:10063000761145F8264070BD0CED00E000E400E0C6
:1006400080E100E002490143024A11607047000066
:100650000000FA050CED00E07047000029B1064AE1
:10066000D2690243044BDA6104E0034AD26982434F
:10067000014BDA61704700000010024029B1064AC0
:1006800092690243044B9A6104E0034A92698243EF
:10069000014B9A61704700000010024030B5002104
:1006A0000022002400232D4D6D6805F00C0121B1BE
:1006B000042905D0082923D105E0294D056022E051
:1006C000274D05601FE0254D6D6805F47012234D20
:1006D0006D6805F48034022505EB92421CB9214D6A
:1006E000554305600BE01D4D6D6805F400351DB1E7
:1006F0001C4D5543056002E0194D5543056002E06D
:10070000174D056000BF00BF144D6D6805F0F00186
:100710000909154D6B5C0568DD4045600F4D6D683E
:1007200005F4E061090A104D6B5C4568DD408560A9
:100730000A4D6D6805F46051C90A0B4D6B5C456844
:10074000DD40C560054D6D6805F44041890B074DDE
:100750006B5CC568B5FBF3F5056130BD0010024068
:1007600000127A0000093D00000000201000002067
:10077000704710B500F002F810BD00000CB5002065
:10078000019000903348006840F48030314908609F
:1007900000BF3048006800F4003000900198401C11
:1007A0000190009818B90198B0F5A06FF1D12948CF
:1007B000006800F4003010B10120009001E000203A
:1007C00000900098012843D12348006840F01000B1
:1007D000214908600846006820F0030008600846C8
:1007E000006840F0020008601A48406819494860F3
:1007F0000846406848600846406840F480604860A9
:100800000846406820F47C1048600846406840F480
:10081000E81048600846006840F08070086000BF3B
:100820000C48006800F000700028F9D009484068C2
:1008300020F00300074948600846406840F0020085
:10084000486000BF0348406800F00C000828F9D158
:100850000CBD000000100240002002407047000064
:1008600010B51348006840F00100114908600846BF
:100870004068104908400E494860084600680E4923
:1008800008400B4908600846006820F48020086092
:100890000846406820F4FE0048604FF41F0088605E
:1008A000FFF767FF4FF000600449086010BD0000CB
:1008B000001002400000FFF8FFFFF6FE08ED00E028
:1008C00010B540F22551154800F049F828B31348F7
:1008D00000F000F9C4B21248124909784454EF2CD0
:1008E00003D010480078002805DD0E480078401C31
:1008F0000C49087002E000200A4908700948007895
:1009000011280AD10020074908700548807A052877
:1009100003D19921044800F0E2F810BD00440040E2
:1009200004010020030100200038014021B1828928
:1009300042F40052828104E082894DF6FF731A402E
:100940008281704702460020B1F5007F00D100BFD0
:1009500013880B400BB1012000E00020704770B5F8
:100960000246002400230025002040F66A16B1420A
:1009700000D100BFC1F3421501F01F03012606FAA2
:1009800003F3012D02D19689334006E0022D02D1F6
:10099000168A334001E0968A33400C12012606FA8B
:1009A00004F41688344013B10CB1012000E000209B
:1009B00070BDF0B50346002400260025002040F657
:1009C0006A17B94200D100BF1846C1F3421401F0C2
:1009D0001F06012707FA06F5012C01D10C3004E0AF
:1009E000022C01D1103000E014301AB107682F43F7
:1009F000076002E00768AF430760F0BD2DE9F047EC
:100A000086B005460E460024A24600BFA146002738
:100A1000B08900B100BF2F462C8A4CF6FF7004400D
:100A2000F08804432C82AC894EF6F3100440B08861
:100A300031890843718908430443AC81AC8A4FF67D
:100A4000FF400440B0890443AC8201A8FFF726FEB2
:100A50001F48874202D1DDF810A001E0DDF80CA0AC
:100A6000A88900F4004040B10AEBCA0000EB0A106C
:100A700031684900B0FBF1F807E00AEBCA0000EB6F
:100A80000A1031688900B0FBF1F86420B8FBF0F07F
:100A900004012009642101FB1089A88900F40040A9
:100AA00040B1322000EBC900B0FBF1F000F00700CC
:100AB000044308E0322000EB09106421B0FBF1F0A0
:100AC00000F00F0004432C8106B0BDE8F087000061
:100AD0000038014001468888C0F308007047C1F320
:100AE00008028280704700BFFEE770B504460D46DD
:100AF00029462046FFF7F3FF00BF80212046FFF77D
:100B000021FF0028F9D070BD70B506460C460025BF
:100B100000BF615D3046FFF7E8FF6D1C605D002897
:100B2000F7D100BF40213046FFF70CFF0028F9D075
:100B300070BD00000EB5FFF723FC01210820FFF770
:100B40009DFD0220ADF8080004208DF80B0002A9DD
:100B50000C48FFF749FC01210846FFF78FFD0121F2
:100B60000846FFF721FC0220009000208DF80400C9
:100B700008208DF8050001208DF806006846FFF773
:100B8000B5FB0EBD000C014008B501210420FFF7A4
:100B900075FD0120ADF8000004208DF803006946C2
:100BA0000148FFF721FC08BD0008014008B50121FC
:100BB0000420FFF763FD4FF48070ADF800001020B3
:100BC0008DF8030003208DF8020069460448FFF702
:100BD0000BFC4FF480710248FFF79AFC08BD00003F
:100BE00000080140FFF7E2FFFFF7CEFF00F020F81A
:100BF00000F066F8FFF79EFF09A10B48FFF784FF9E
:100C00000CE001210948FFF7A7FC38B907480C3070
:100C1000006880F4807005490C310860F1E700003D
:100C2000CAC7B7F10A0000000038014000080140BF
:100C300000B585B001210420FFF720FD01218803C4
:100C4000FFF71CFD4FF40070ADF8100018208DF870
:100C5000130003208DF8120004A91748FFF7C4FB06
:100C60004FF48060ADF8100004208DF8130004A943
:100C70001148FFF7B9FB4FF4E13000900020ADF8C8
:100C80000400ADF80600ADF80800ADF80C000C202B
:100C9000ADF80A0069460948FFF7B0FEFFF773FC9C
:100CA000012240F225510548FFF783FE0121034848
:100CB000FFF73CFE05B000BD0008014000380140D0
:100CC00000B585B001210420FFF7D8FC01214804BC
:100CD000FFF7C4FC0420ADF8100018208DF81300B5
:100CE00003208DF8120004A91848FFF77DFB0820A7
:100CF000ADF8100004208DF8130004A91348FFF785
:100D000073FB4FF4614000900020ADF804004FF4F5
:100D10000050ADF806000020ADF80800ADF80C005A
:100D20000C20ADF80A0069460948FFF767FEFFF797
:100D30003DFC012240F225510548FFF73AFE012112
:100D40000348FFF7F3FD05B000BD000000080140B7
:100D500000440040740D0008000000200401000061
:100D60006C010008780E00080401002074060000E1
:100D700088010008000000000102030401020304CE
:100D80000607080902040608EF01FFFFFFFF010044
:100D9000030D0011EF01FFFFFFFF0100083100010B
:100DA00002007300B0EF01FFFFFFFF0100083100F8
:100DB0000202007300B1EF01FFFFFFFF01000831E5
:100DC000000302007300B2EF01FFFFFFFF01000804
:100DD00031000402007300B3EF01FFFFFFFF0100C9
:100DE0000831000502007300B4EF01FFFFFFFF01AF
:100DF000000831000602007300B5EF01FFFFFFFF9E
:100E000001000831000702007300B6EF01FFFFFF89
:100E1000FF01000831000802007300B7EF01FFFF77
:100E2000FFFF01000831000902007300B8EF01FF65
:100E3000FFFFFF01000831001002007300B9EF014D
:100E4000FFFFFFFF0100083200FFFF0006023FEF37
:100E500001FFFFFFFF0100070C000100010016EF7A
:100E600001FFFFFFFF010003330037EF01FFFFFF2A
:080E7000FF0100031D00210039
:0400000508000131BD
:00000001FF
